:040000006F10A018C5
:1000040000000000000000000204000004040000DE
:100014000000000088110000000000000000000043
:10002400881100008811000000000000000000009A
:10003400881100000000000088110000000000008A
:1000440088110000881100008811000000000000E1
:100054009804000088110000881100008811000035
:100064008811000088110000881100008811000028
:100074008811000088110000881100008811000018
:100084008811000088110000881100008408000015
:1000940088110000881100008811000088110000F8
:1000A400881100008811000088110000C2050000BA
:1000B40088110000881100008811000088110000D8
:1000C40088110000881100008811000088110000C8
:1000D4008811000088110000881100000000000051
:1000E400000000000000000000000000000000000C
:0C00F40000000000000000000000000000
:10010000397101436EC619A0397141536AC866CA74
:1001100062CC5ECE19A0397101535AD056D252D456
:100120004ED64AD826DA22DC06DE330161408282CE
:1001300041114AC026C222C406C68282B24D410184
:10014000024D924C224CB24B4101024B924A224A40
:10015000B2494101024992442244B24041018280A5
:100160003D432A876373C3029377F700BDEFADE584
:10017000937606FF3D8ABA960CC34CC30CC74CC796
:100180004107E36BD7FE11E28280B306C3408A06C3
:100190009702000096966780A6002307B700A30683
:1001A000B7002306B700A305B7002305B700A304D3
:1001B000B7002304B700A303B7002303B700A302CB
:1001C000B7002302B700A301B7002301B700A300C3
:1001D000B7002300B700828093F5F50F9396850052
:1001E000D58D93960501D58D61B79396270097021B
:1001F000000096968682E78086FA9680C1171D8F4A
:100200003E96E374C3F8A5B7EFF29FF237140140AE
:10021000AA84C14513050480EF10002393D5840000
:1002200037350140EF10C03593F5F40F37350140F5
:10023000EF100035C14513050480EF10002019BFF1
:10024000EFF21FEFB707002003C4872103C7B18473
:1002500083C78184418F014481C7856713840780E8
:1002600083C79184598CB337F000AA075D8C83C78C
:10027000A184B337F000A2075D8C89675D8C83C7CA
:10028000C18491CF03A7C1808D6537350000A28658
:100290002286938505731305C570EF10F05B2285E8
:1002A000A5374DBD894763EAA700931725000D6563
:1002B000130545723E9508418280373500001305CD
:1002C000C5768280EFF2DFE689472A86631BF50256
:1002D000B7070020238C072083C7C1848DC3B707CD
:1002E000002003C7872183A7C1808D6537350000B3
:1002F000BA86938545741305856EEF10F0558937DE
:1003000091BD05476319E500B70700201307800278
:10031000238CE720D1B769F137070020230CF720A1
:1003200065BFEFF2FFE09307801663F4A700337513
:10033000F502AD473305F502F1775D8D4205418148
:10034000E13509BDEFF2DFDEB7C7BE00938707C214
:1003500041113E8663E3A7002A86328532C6EF103C
:10036000B020B737000083A5876AEF108071B737D8
:10037000000083A5C76AEF10E045EF10901913073E
:10038000150093172701C98311689354E70033E4DC
:1003900007013AC4B3E4040165352285C204AD35D2
:1003A000C1802685953583C7C1842247324699CFBF
:1003B00083A8C1808D65373500002688A287BA865C
:1003C000938585751305056BEF101049410159B3ED
:1003D000EFF21FD6411185471384A1841CA032C2BD
:1003E0002EC42AC6B13D3245F13D993DA2452E8528
:1003F000913F124632853537230004009135410183
:1004000091BB01A0B707EFBE37E700E0938707086D
:100410003CC701A0EFF2DFD1011185451145EF1076
:10042000400F85450545EF10A01037140140614786
:1004300085474C08130504803ACE3ECA3ECCEF00F7
:10044000F06689474C08130504803ECAEF00106629
:10045000280002C402C623180100EF1000199307F8
:1004600000052C00370500403EC602C4EF10801284
:10047000B70700409A27136717009AA7DA2B13676C
:100480001700DAAB61771347F7FFDAB39A231367E4
:1004900017009AA305617DB91145EF00B05E01CD4B
:1004A00083C7D18493F7F70F81E78947A386F18447
:1004B0001145EF00105F73002030EFF27FC77971B4
:1004C0003717024002CC02D002D202D402D61C4F0F
:1004D00002C602C893E74700371501401CCF1144FC
:1004E000930780044C08130505803ECE22CAEF0016
:1004F000F05B89450145EF007075A14722D00810D7
:1005000005443ED422D602D2EF0030519307401169
:100510007C86680089475C8722C8EF007076456159
:1005200015B9EFF2FFC0011102C802CA02CC02CE17
:10053000B7170240984FB7060800371401401367F9
:10054000870098CFD84F2A89E144558FD8CF3707F5
:1005500001405C439D664C00D58F5CC3130504C00D
:1005600085473EC23EC426C6EF00505489474C0022
:10057000130504C03EC23754004026C6EF00105396
:10058000B7070C000C08130504C03ECC4AC802CAC9
:10059000231E0100EF1000090546130504C0930552
:1005A0005052EF106012856737E700E093870780AD
:1005B0002322F7108545130504C0EF10800F056155
:1005C00051BE011152C6375A00409305000213056F
:1005D0000AC022CE26CC4ACA4EC8EF104013630789
:1005E000050C13050AC0EF1000121389818583479B
:1005F00009001387C187E207E187BA979379F50F5E
:10060000238037018347090013050AC0938481853D
:10061000E207E1873E970C23EF10600E8347090045
:100620001387C1878507E207E1872300F900A947FF
:100630006385F900B547639BF9069C20B735000038
:100640009385057B8507E207E1879CA01385C18719
:10065000BA9723800700EF10302C09C50547A38601
:10066000E1842DA8B73500009385457B1385C187AC
:10067000EF10902A19C11547DDB7B73500009385F3
:10068000857B1385C187EF1030290DC91905EF103F
:10069000700123A8A1800547238FE1801306000481
:1006A00081451385C187238004005D3C7244E24488
:1006B0005249C249324A056173002030B735000003
:1006C0009385057C1385C187EF10102501C9150599
:1006D000EF10407D23AAA180194751B7B73500001C
:1006E0009385857C1385C187EF10102301C91505FB
:1006F000EF10407B2384A1821D4795B7B7350000DA
:100700009385057D1385C187EF10102115CD150543
:10071000EF104079A54623A0A1829387D18494A3AA
:100720008D66FD571387D1849D459386867E850708
:10073000E386B7F61396270036961042E319C5FEF6
:1007400023A2F1860CA399BFB73500009385857D60
:100750001385C187EF10501C15C913094500B73523
:1007600000009385057E4A85EF10101B09C50547DB
:100770002386E18425B7B73500009385457E4A85F9
:10078000EF10901901C52386018409BF2547C1BD1B
:10079000EFF21F9AB71602409C4E0567011113072E
:1007A0000780D98F231C0100231E010002C602C846
:1007B000231B0100231D01009CCE83D78180373489
:1007C00001404C08FC8483D7C181130504C0930405
:1007D00004C0FC8293072003230EF100EF00905B1E
:1007E000F9572318F4C0930730027C8685475C874D
:1007F000680085473EC8EF00B0488357C4C093E700
:1008000017002316F4C0835704C093E71700231082
:10081000F4C005616FF01F94EFF29F91B71701408C
:10082000938607C0411121476306D5001147631322
:10083000F5004147B71602409C4ED98F9CCEC14768
:100840002EC23EC64C0085473EC4EF003026410113
:100850006FF05F90EFF2DF8D03A54180B7070020B6
:1008600083D5A72183C7A1851384A18589CBEF00F8
:10087000B03D1C2093C7F7FF1CA06FF0BF8DEF00A9
:10088000D03BC5BF373501408545130505C0EF0096
:10089000305785476315F502753F1387E1811423AF
:1008A0009387018699C683A60181230007008506E8
:1008B00094C39843050798C31147A386E18437354D
:1008C00001408545130505C0EF0010557300203029
:1008D000EFF21F865566130606183375C5020566C6
:1008E000130606E19307C0032E88B74500009385E1
:1008F0004580B376C5023356C502428533F7F6020A
:10090000B3D6F602EF10E07B31456FF0BF84EFF213
:100910009F80B7170240984F856993864900558F8D
:1009200098CF984F0111371401401367870098CF73
:10093000C14405498A851305048026C026C44AC2DD
:10094000EF00D016938789848A85130504C03EC0C2
:1009500026C44AC2EF009015930700048A85130548
:1009600004803EC026C44AC2EF005014930700081A
:10097000614A8A85130504803EC052C44AC2EF0012
:10098000F012930700028A85130504803EC052C40A
:100990004AC2EF00B01113050480C145EF00F029F1
:1009A00093850980130504C0EF003029130504C0A6
:1009B000A145EF0070291305048093050004EF00A2
:1009C000D027B7C7040102CA3EC69307002002C859
:1009D00002CCFC836C00894737350140FC81E484FC
:1009E000231E0100EF00B036373701401E2393E786
:1009F00007041EA305616FF04FF5EFF26FF3EF00F0
:100A0000300183A6018603A7C18003A6C182AA85FF
:100A1000374500001305858EEF1000646FF08FF3EB
:100A2000EFF20FEE79710545EF003025EF002072EF
:100A3000B707002083D5A72103A54180F13BEF0034
:100A4000B04DB933716513050520E13C1305803EB7
:100A5000EF00F04E5D37653D2945EF00504E938A1B
:100A600041811389818203D6C18583A50A0003458C
:100A70000900EFF0FF9583A50A00034509002EC287
:100A8000EFF05F8283A6C18092452A863745000039
:100A900013058581EF10405C252B13052003EF0023
:100AA000104A03A641823733000093050372138571
:100AB000C18BEF100061A52B938491859420AA85AA
:100AC00011461385C18B592313054006EF003047AB
:100AD00003A50A00B70D0020EF100029EF106023D6
:100AE0001306803EB376C502938701853748000020
:100AF0009305488488C3814C014D138B41819389B0
:100B00008182938BC180138A91853356C5021385E8
:100B1000C18BD4C3EF10E05A192B9420AA85094643
:100B20001385C18B252303A7418693870D000345B9
:100B300009000A07BA97904337490000938A418613
:100B400032C2EFF02FF61246AA8693050985138567
:100B5000C18BEF100057E1299420AA850D4613851B
:100B6000C18BED21EFF01F8BEFF03F95B7070040F1
:100B7000DA3303DC4702938741823EC893870185BD
:100B80003EC493870D003ECC8D679387C7783ED0D7
:100B90008D679387877E3EC6B7070020420C3733A8
:100BA0000000374800009387C701135C0C018144A3
:100BB0001AC242CA4ACE3ED29387D1849C2321478F
:100BC0001389D184FD1793F7F70F6361F70202577A
:100BD0008A07BA979C43828783A50B00374500009C
:100BE00013058585EF10404723000900B707004033
:100BF000DE33C207C1836300FC0213F71700630CE6
:100C0000072AC204C1806376FC2A8504C2040D470A
:100C1000C1842300E900638D0C0203A70186636988
:100C200097033ED4C2477D571385C18B90439247AB
:100C300023ACE180814C93850772EF108048C52E6C
:100C400083460A00AA8511461385C18B0121A2574C
:100C500005453ED4EF00B02EA2573E8CB1BF812E89
:100C600003A60B00374500001305C586B285EF10BB
:100C7000A03E13054006EF00902CB707EFBE37E704
:100C800000E0938707083CC785B703A501869385D5
:100C9000C18B3D39692E83460A000546AA85138516
:100CA000C18B6D2691B783A5018603260B0003C572
:100CB00009002ED632D4EFF0EFDE03A70B00225648
:100CC000B255AA86374500001305C587EF10C03816
:100CD00021BF03250B00EFF0EFE603A60B008325F1
:100CE0000B00374500001305458AEF10E0368345B9
:100CF0000A000945812C03260B009307703E63FC14
:100D0000C7023285EF104006EF10A0001306803EA8
:100D1000B376C502A24788C33356C502D4C3D247AF
:100D20001385C18B93854784EF10A039092683462C
:100D30000A000946A5B7B74500009385058C1385C1
:100D4000C18BEF100038DDB703C50900EFF08FD776
:100D500003C50900EFF00FD583A70A00324783A629
:100D60000B008A07BA979043AA8537450000130500
:100D7000858CEF10602E83450A000D45E12283A784
:100D80000A00624703C509008A07BA97904332D424
:100D9000EFF04FD1F2472256AA8693850785138537
:100DA000C18BEF100032612483460A000D46FDB569
:100DB00083A78181894613878181850763C2F604F1
:100DC0001CC383450A001145B52A138781811C4342
:100DD00012571385C18B8A07BA9790439247938520
:100DE0000772EF10002EA12483460A00AA8511463F
:100DF0001385C18BA12C1305B004EF005014EDB383
:100E0000232007007DBF83A78181230009000547B8
:100E10006388E7040947638BE7069DE783A70A0019
:100E2000B24603270B008A07B6979C4363539D0283
:100E3000BA9737C7BE002320FB00130707C26365BC
:100E4000F70099472300F90083AC0186268D950CA5
:100E500071BBE36BF7FEB307F7402320FB00D5B768
:100E600083C70900635F9D00850793F7F70F094764
:100E70006365F7002380F90019A0238009009D47CE
:100E8000D1B799E38947FDB7FD17EDB783A70A00EE
:100E9000635C9D00850719476345F70023A0FA00AE
:100EA000F9BF23A00A00E1BF99E39947C5BFFD1729
:100EB000F5B7FD14A1BBE287B9BBEFF26FA73714FA
:100EC00001408565130504C093850580BD23930506
:100ED0000004130504808D2B0545EF005006930593
:100EE000000413050480912B0545EF0050056FF0B9
:100EF0006FA6EFF24FA2371901402E8485659385C6
:100F00000580AA89130509C0B2843D2BA1451305AC
:100F100009C0638009020D2BA294631E94008565AD
:100F20003715014093850580130505C039236FF0FF
:100F3000CFA12123D5B705048345F4FF3735014000
:100F40008125E1BFEFF2CF9E7D1541111375F50F9D
:100F5000B7077F22938717024886136505FB3EC4B7
:100F600048879D47AE84054593050008DC86EF0061
:100F7000D07323A4A18615C51384818699C4130652
:100F800000089305F00FEFF0AF9D1D462C000545BE
:100F90008D370C40014513060008A13F0840EF00C3
:100FA00090710545EF00A07941016FF0AF9AEFF223
:100FB0002F980544A5442285050481451374F40F38
:100FC0005137E31A94FE0545EF0060776FF08F9874
:100FD000EFF20F96B7D780A801119387E75A3EC268
:100FE000B7D700409387F7313EC4B717A1C893879E
:100FF000D7483EC6B707818F9387A72D3EC8B7F75E
:10100000DB409387971D3ECAB727002E9387470A78
:101010003ECCED77938767FAFC8645354C006946F0
:101020000545C13D6937014505616FF0AF92130772
:10103000F5FFB94763EAE700C1473385A740058557
:1010400005051375F50F828001458280EFF2CF8B85
:1010500079717D161374F60F2EC6B68A2A8AEF10A0
:10106000800AB2458567FC86930710022300F102CF
:10107000FD1589678E059387F727A300B102231119
:10108000F102AA899D4719460C1005451169230FE5
:10109000010002D402D623028102A302F10281449C
:1010A000893D294B13094997930BF10263C534011C
:1010B00045616FF0EF88B3079A008387070063915B
:1010C000670305041374F40F936704FB230FF10007
:1010D0000D466C0805458504293D93F4F40FF9B7D6
:1010E00093F7F70F8E07CA979843DC433AD43ED65E
:1010F000638A0A003C10983385071347F7FF98A3CB
:10110000E39B77FF21462C100145F1B7B71702404A
:101110009843B70600F99386F6F51367170098C34E
:10112000D84313670705D8C3D843758FD8C337276B
:1011300002401443F19A14C3144393E6260014C3E7
:10114000D8431377F7F0D8C3D843D8C38280B716F3
:101150000240DC42918313F7F700B7070020938722
:101160008702BA979C23D4423777DC0293F7F70FB4
:10117000130707C093F606083356F70099E2335673
:10118000F70223A6C182828001A0970100209381EB
:10119000E188174100201301E1E61735000013052F
:1011A000A5F497F5FF1F9385E5E51386818463FA1F
:1011B000C5008322050023A0550011059105E3EA2F
:1011C000C5FE13858184938501906377B500232044
:1011D00005001105E36DB5FEFD42739002BC8D4222
:1011E00073904280930280087390023097F2FFFF61
:1011F000938282E193E2320073905230EFF01FF15C
:1012000097020000938202827390123473002030A0
:10121000B7F7FF1F03A547708280584103280500D8
:101220004C4537060140930706403E979346F8FF2A
:10123000B1C583250640F58D2320B640D043F18EFD
:10124000D4C31443B3E6060114C318419047934630
:10125000F7FF758E90C7D047F18ED4C7144541462D
:101260006399C6009447D98E94C7D447558FD8C781
:101270008280B6979443558F98C382801C43F58F24
:101280001CC38280B70701401387074083A707402C
:10129000584B698F09C77D8D3335A0008280014589
:1012A0008280B707014023AAA740828098459377A0
:1012B00007011378F70081C7DC413368F8009441D7
:1012C000814713F6F60F39C21C410146854E3D4F4A
:1012D000930F800293028004214EB398CE00B3F5A1
:1012E00016016391B80213132600B3156F0093C55E
:1012F000F5FFED8F33136800B367F3006315F70F45
:10130000232A15010506E31AC6FD1CC14166130612
:1013100006F0758E49C237F6FF1F03264670137616
:10132000060F7DE237160140930506806312B50C67
:1013300083A70183A145854E3D4F930F8002930201
:101340008004414E3393BE0033F666006312C3023D
:10135000139625000116B318CF0093C8F8FFB3F712
:10136000F8003316C800D18F6312F70B232A6500EB
:101370008505E399C5FD5CC137F6FF1F032646705E
:101380001376060F09EA37160140930506806314A9
:10139000B50823A8F182C16763E6F604504D814782
:1013A000054E3D4F930F800293028004A14E93851A
:1013B0000701B315BE00B3F8B60063911503939807
:1013C000270033131F011343F3FF3376C300B31811
:1013D000180133E6C800631CF7054CC98507E3987C
:1013E000D7FD50CD8280E31F57F02328150119BF88
:1013F000930506C06315B50083A7418325BFE31B92
:10140000C5F283A781833DB75C412DB7E31257F640
:1014100023286500B1BF930506C06315B50023AA54
:10142000F18295BFE319C5F623ACF182ADB7E3179E
:1014300057FAB315FE000CD155B793970501C18338
:101440001CC9C1810CD182804CC9828093F7F50000
:10145000918113972500B7050140BA9594458607F9
:101460000D473317F7001347F7FF758F98C5984559
:101470003315F500598D88C5828023A6A186828008
:1014800003A7C186854714216310F7021C31639CB2
:10149000E7023C21960793E707F837E700E093F768
:1014A000F70F36972300F740054793D756003317B9
:1014B000D700544189CE938707048A07B7E600E036
:1014C000B69798C38280EDF33C219607F9B79387CE
:1014D0000706E5B7B777DC02938707C01CC137164C
:1014E0000240584211839376F70037070020130714
:1014F000870336971423504293F6F60F13760608A7
:1015000033D7D70019E233D7D70258C118C558C509
:10151000828099C5371702401C4F5D8D08CF8280AD
:10152000B7170240984F1345F5FF798D88CF828019
:1015300099C5371702405C4F5D8D48CF8280B71741
:101540000240D84F1345F5FF798DC8CF82801A210C
:101550008D6793870704B6217D8F9E21D58FD62175
:10156000D58FF621D58F9625D58FB625D58FD62543
:10157000D58FF625D58FD98F1EA19E291EA98280D1
:101580001E2593F70708EDFF4EA51E2593F70708C4
:10159000EDFF82801E2137370140130707C0C207C5
:1015A000C1836306E500370700406316E500BA21F2
:1015B00093F7F7F8D98FFA2193F7F7CFC207C183D2
:1015C000D98F1EA1DE215EB59E211EB5B737014021
:1015D000938707C06306F500B70700406314F50062
:1015E0009C251EB985475EA98280FD575EA1231008
:1015F0000500231305002311050023040500828044
:101600001E294A25ED8F4205418189C76D8D3335ED
:10161000A00082800145828093C5F5FFC205C1818B
:101620000EA98280EFE2DFB01629F577FD17F58F5E
:10163000F621DA250111D58F1EA95625FD7793874E
:10164000379FF58FD6212A842EC6D58F9625D58F24
:10165000B625D58F5EA55E29C207C18393F7F7CF64
:10166000D98F5EA90808BD35B74701409387078029
:10167000B245631EF402F2476547B387E70298411B
:10168000930640060A07B3D7E70233D7D702B3F76A
:10169000D7021207920793872703B3D7D702BD8BD0
:1016A000D98FC207C1831EA405616FE0BFAAE247BC
:1016B000E1B791C55E250967D98F5EA582805A255D
:1016C000F977FD17F98FD5BF13F7F50F8547158308
:1016D000B395B7006319F7009307C500984301CE8F
:1016E000D98D8CC38280894693074501E318D7FEC4
:1016F00093070501E5B793C5F5FFF98DDDB793F5C0
:10170000F51F4EA182804A211375F51F82800A21A0
:101710006D8D3335A000828083A7C18237177A0090
:1017200013070720B3D7E70293F7F70F2389F18652
:101730001307803EB387E7022398F1868280B7F7CC
:1017400000E0D8438146799BD8C303D7018733068D
:10175000A70290CBD4CB98431367070198C3984353
:101760001367170298C3D843058B75DF9843799B9D
:1017700098C38280EFE23F9AB7540040AE89328925
:101780000144938404C0634524014A856FE0FF9BB4
:10179000930500042685A53F65DDB3878900838511
:1017A000070026850504C205C181913FE9BF138763
:1017B000C1831C43938601903E95636BD500B75659
:1017C00000209386068063E5A60008C33E858280DC
:1017D000FD57EDBF3971935775014AD856D25ECE89
:1017E000931A95001359F50106DE22DC26DA4ED64F
:1017F00052D45AD093F7F70F93DA9A00CA8B6382C8
:1018000007121307F00F6384E7128E0A37070004EC
:10181000B3EAEA00138A17F80144014B93D7750124
:101820009394950093F7F70FA58093D9F501FDC721
:101830001307F00F6387E7028E04938717F83707C3
:101840000004D98C330AFA408146558C17270000D2
:10185000130787520A043A941C4033493901BA9756
:101860008287130A1AF0F9E88946558C1727000079
:10187000130787540A043A941C4033493901BA9734
:10188000828701491307F00FB707400013959700AF
:10189000F25062549317770125817E095D8D33657F
:1018A0002501D2544259B259225A925A025BF24B44
:1018B000216182801307F00F8147C9BFA68ACE8BB2
:1018C000368B89476309FB1A8D47E30CFBFA854782
:1018D0006308FB0A1307FA0713F91B006355E012AC
:1018E00093F77A0099C793F7FA0091466383D7007C
:1018F000910A93974A0063D90700B70700F8FD17CC
:10190000B3FAFA0013070A089307E00FE3C4E7FAF3
:1019100093976A00A5831377F70F8DBFB1E48546CF
:10192000A9B763940A021144014A054BC5BD6399E6
:101930000A002144130AF00F094BCDB58D4631B78B
:101940003144130AF00F0D4BD1BD56852EC6E5214B
:101950009307B5FFB39AFA009307A0F8338AA7401C
:101960000144014BB2455DBD2685F1211307B5FF4A
:10197000B307AA00B394E400138A67078146F1B560
:1019800013F91B000147814711B7416613955400B5
:101990007D1693570501698E63FA9A0AB3D5FA0248
:1019A0007D1AD68601473388C502B3F6F602C20611
:1019B000558F637B07012A979386F5FF6368A70A13
:1019C0006376070BF9152A9733070741B356F702D9
:1019D0003377F702B38AC6029317070163FB5701F7
:1019E000AA971387F6FF63E1A70863FF5707F91665
:1019F000AA97C205B38A5741D58DB33A5001B3EACD
:101A00005501CA8BC1BD8546998E11C76D460147E8
:101A10008147E34DD6E6130AEA09339A4A01B3D760
:101A2000DA00B33A4001B3E7570113F7770019C75B
:101A300013F7F70091466303D700910713975700F8
:101A4000634807029A07A583014789B593D61A0010
:101A5000B3D5F6021397FA0141833388C502B1B7B3
:101A6000CE8B368B814AB1BDBA8661B7B685A9BF28
:101A70000547814721BD13F91B001307F00F81476C
:101A800031B5797122D4135475014ECE52CC9319CD
:101A9000950006D626D24AD056CA5AC81374F40FF7
:101AA00093D99900135AF50169C49307F00F63089D
:101AB000F40E9397390037070004B3E9E7001304E5
:101AC00014F88144014B13D77501939A950013774D
:101AD000F70F93DA9A0013D9F50145CF9307F00F6A
:101AE000630CF7028E0A130717F8B7070004B3EA6E
:101AF000FA003A94014633452A01BD47AA86930568
:101B0000140063E09710172700001307E72E8A04DC
:101B1000BA949C40BA9782871304F40F63960A0C18
:101B200093E424000946C1BF01451307F00FB7072E
:101B30004000B2502254A6075E07A5837E05D98FC8
:101B400092540259F249624AD24A424B5D8D456134
:101B50008280CA86D689328B8947630FFB088D47FE
:101B6000E304FBFC854736856310FB1A0147814778
:101B7000C9B7639D090413D77501939A950013772C
:101B8000F70F91440144054B93DA9A0013D9F501FC
:101B900031F7639D0A0093E414000546A9BF6392E0
:101BA0000902A1441304F00F094B31BF568561248B
:101BB0009307B5FF098CB39AFA001304A4F8014601
:101BC0001DBFB1441304F00F0D4BF5BD4E852EC65D
:101BD0009D249307B5FF1304A0F8B399F900098C6D
:101BE0008144014BB245C5B593E434000D4621B79D
:101BF0008947D286E315FBF636851307F00F814738
:101C00000DBF41639306F3FF13D6090193D80A0170
:101C1000B3F7D900B3FADA0033885703B389F8026F
:101C200013570801B30A5603D6994E973306160385
:101C3000637357011A96C167FD17B376F7003378BF
:101C4000F800C206C2969399660093570701B3390C
:101C50003001E982B2979A07B3E6D900B3E9D70019
:101C60009397490063D9070013D7190093F7190018
:101C7000B369F7002E841307F4076350E00493F769
:101C8000790099C793F7F90091466383D7009109CA
:101C90009397490063D90700B70700F8FD17B3F918
:101CA000F900130704089307E00F63CBE704939749
:101CB0006900A5831377F70FADBD8547B386E7406D
:101CC00011C76D4601478147E345D6E61307E4098E
:101CD0003397E9003337E000B3D7D900D98F13F732
:101CE000770019C713F7F70091466303D7009107F0
:101CF00013975700634C07009A07A583014715BD4A
:101D00001307F00F814735B52E84B5B705478147D6
:101D10000DB513577501370680009307F6FF13774B
:101D2000F70F9305E007B3F6A7009357F5010145B8
:101D300063F4E50099C3828082809307E0097D55B2
:101D4000E3EBE7FE93055009B3E7C60063D7E50070
:101D50001307A7F63395E700828013056009330760
:101D6000E54033D5E7008280411106C622C415CD77
:101D70002A84D1209307E0093387A740930760099D
:101D800063C0E704A1469377F70F63D5A6006115FA
:101D90003314A40026042580260413559400B24071
:101DA0002244DE075D8D41018280014426041355E3
:101DB0009400B24022448147DE075D8D410182805C
:101DC0009307900963DDE7009307B5019546B317C4
:101DD000F400898EB337F0003354D4005D8C9547FE
:101DE00063D6A7009307B5FF3314F400B70600FCD1
:101DF000FD16937774003376D40085C39377F4008F
:101E00009145638CB70011069317560063D70700FE
:101E10009307F009758E3387A74013146600258059
:101E2000260413559400B24022449377F70FDE073F
:101E30005D8D41018280C167637CF5029307F00FDD
:101E40001307000263EBA700972700009387C7FEE4
:101E5000AA9788233305A740828021819727000015
:101E6000938787FDAA97882361473305A74082801F
:101E7000B7070001636DF500618197270000938724
:101E8000A7FBAA97882321473305A7408280418179
:101E900097270000938747FAAA978823414733057D
:101EA000A740828029468145F1AE938701842E8622
:101EB000AA85884331A093870184AA85884325A0F9
:101EC0003386C502011122CC06CEB28532C67528F2
:101ED0002A8409C532468145EFE08FA82285F24069
:101EE000624405618280CDC183A7C5FF411122C430
:101EF00006C626C21384C5FF63D307003E94AA8496
:101F0000F52B938741879C4399EB2322040023AA56
:101F100081862244B240268592444101CDA3637E4E
:101F2000F40014403307D4006396E7009843DC4381
:101F3000369718C05CC0E1BFBA87D84319C3E37DA8
:101F4000E4FE94433386D700631F86001040B296A8
:101F500094C33386D700E31EC7FA10435843B296A2
:101F600094C3D8C37DB76375C400B1479CC055B74F
:101F70001040B306C4006316D70014435843B2960A
:101F800014C058C0C0C371B78280011126CA93849F
:101F90003500F19806CE22CC4AC84EC6A104B147FE
:101FA00063F1F404B14463E0B4042A89812B93877C
:101FB000418798433A8431E0938781879C4391E736
:101FC00081454A85D12823ACA186A6854A85E9208A
:101FD000FD5963173507B1472320F9004A850523CA
:101FE00029A0E3D204FCB1471CC10145F240624480
:101FF000D2444249B249056182801C40858F63CE3C
:102000000702AD4663F6F6001CC03E9404C031A042
:102010005C406312870223AAF1864A85CD2113050D
:10202000B4009307440061993307F54061D33A94B3
:10203000898F1CC065BF5CC3CDB722874040A5BF58
:10204000130435007198E30385FCB305A4404A8569
:10205000A120E31D35FB41B739713EDA2ED232D4CF
:1020600036D63AD842DC46DE9387018422CC8043C0
:1020700026CA06CEAA8409C41C4C99E32285E92C01
:102080000C4454102686228536C6EF009002F2409A
:102090006244D24421618280411122C42A842E8567
:1020A00023AE018E06C6EFF08FF0FD576317F500E3
:1020B0009387C18F9C4391C31CC0B240224441010D
:1020C000828035713ECBB707008093C7F7FF3ECEC5
:1020D0003EC8C1779387872032C536C73AC942CDFB
:1020E00046CF3ECA938701842AC42ACC8843340150
:1020F0002E862C0086DE36C2F521A24723800700FB
:10210000F6500D618280AA87850703C7F7FF6DFF30
:102110003385A7407D15828018219C2101E791C35A
:1021200001458280814739A01C3113071500EDDB82
:1021300081473A853387F500182365D7B306F50044
:102140009422E393E6FE85072A87E5B779714AD0A2
:102150004ECE06D622D426D2AA892E8993041900FF
:1021600003C4F4FF3A8536C632C42EC23AC0992E53
:1021700022951C3102479245A18B2246B246D1E3FB
:102180009307D0026311F4089C20054393042900AF
:10219000E5C641476390E60213070003639CE7002E
:1021A0009C201307800593F7F70D6392E70C9C3092
:1021B000C1468904B70800806314030093C8F8FF80
:1021C00033FFD80201480145A54FE54EFD5233DEED
:1021D000D802138707FD63E3EF04BA8763DED704F1
:1021E000630D58007D58636AAE006314AE00634609
:1021F000FF0005483385A6023E95850483C7F4FF9A
:10220000C9BF2689A1BF9307B0026305F400A28766
:102210000143BDBF9C2093042900DDBF1387F7FB5A
:1022200063E5EE00938797FC55BF1387F7F963E5E5
:10223000EE00938797FA5DB7FD57631FF800930789
:10224000200223A0F900468519EEB2502254925480
:102250000259F24945618280630403003305A040BE
:102260006DD6630408009385F4FF0CC2F9BF930791
:102270000003A9F2A1463DBF13070003E382E7F282
:10228000A9460DBF938701849C43B286985309E702
:1022900017E7FF1F130787E12E86AA853E857DB5C8
:1022A000411122C406C62A844EA572A5232005002A
:1022B00023220500232405002322050623280500E8
:1022C000232A0500232C0500214681451305C50559
:1022D000EFD01FE997170000938767C15CD097176D
:1022E0000000938787C31CD497170000938767C7A4
:1022F0005CD4971700009387C7C900D01CD8B240A0
:1023000022444101828097150000938525FFB1A2E8
:10231000411126C2130680069384F5FFB384C402DC
:102320004AC02E8922C406C693854407EFF0FFC534
:102330002A8401CD2320050023222501310508C46C
:10234000138684068145EFD0BFE12285B240224446
:1023500092440249410182801C4DADE3411106C601
:1023600022C497070000938747FA1CD593874184BE
:102370009C43232405042326050423280504631411
:10238000F50085471CCD2A841D2848C022850528D4
:1023900008C422852D2048C448400146914509378C
:1023A00008440546A545ED3D48440946C945CD3D8F
:1023B00085471CCCB2402244410182808280411179
:1023C0009387418426C284434AC006C69C4C22C4DB
:1023D0002A8999E326854937938484048044DC4024
:1023E000FD1763D607009C40B9CF8440C5BF0317D3
:1023F000C40039E7C177850723220406232004009F
:1024000023220400232404005CC423280400232A7C
:102410000400232C0400214681451305C405EFD098
:102420003FD4232A0402232C040223240404232659
:1024300004042285B2402244924402494101828030
:102440001304840671BF91454A85D93588C051FD72
:10245000B1472320F9000144E9BF797122D44AD061
:1024600052CC56CA5AC85EC606D626D24ECE2A8A44
:10247000AE8A130485040149054BFD5B09ECB2509B
:1024800022544A8592540259F249624AD24A424B36
:10249000B24B45618280044483294400FD1963D412
:1024A00009000040E1BFDE24637BFB008397E4006A
:1024B00063877701A6855285829A3369A900938440
:1024C0008406E9BF0325C50E828091ED41116C00A1
:1024D000014501CA795591C61C229CC10822333599
:1024E000A00041018280014509CA795599C61C2284
:1024F0009CC108223335A000828082808280828045
:1025000001114AC803A9850022CC52C45AC006CE84
:1025100026CA4EC656C22E84328B368A63E92609F5
:10252000DE2513F7074851C304408C495848AA8A4E
:10253000B389B4408D44B384E4020947B3C4E402D0
:10254000138716004E9763F3E400BA8493F70740AD
:10255000BDCFA6855685EFF05FA32A891DE1B1475F
:1025600023A0FA005E247D5593E707045EA4F240A1
:102570006244D2444249B249224A924A024B05611E
:1025800082800C484E86EF0050705E2493F7F7B7B8
:1025900093E707085EA42328240144C84E99B38416
:1025A00034412320240104C4528963732A015289CF
:1025B00008404A86DA85EF0070781C440145B387ED
:1025C00027411CC41C403E99232024014DB7268678
:1025D0005685EF00107B2A895DFD0C485685EFF08B
:1025E0009F90B5BFDE25717126D34AD14ECF06D755
:1025F00022D552CD56CB5AC95EC762C566C393F782
:102600000708AA892E89B284B9C39C49A9E3930516
:10261000000436C6EFF07F972320A9002328A900E5
:10262000B24615E1B14723A0F9007D55BA502A54AE
:102630009A540A59FA496A4ADA4A4A4BBA4B2A4C1E
:102640009A4C4D61828093070004232AF900930776
:102650000002A30CF1029307000302DA230DF1023A
:1026600036CE930B5002972A0000938AEA93054CCA
:10267000294B26841C2099C363987709B30C944096
:10268000638D0C00E6862686CA854E85953DFD57EE
:10269000630BF518D256E69636DA1C2063850718C8
:1026A000FD579304140002D002D63ED202D4A301F7
:1026B000010682DC8C2015465685EF00905B138462
:1026C0001400825721E513F7070109C71307000219
:1026D000A301E10613F7870009C71307B002A3019E
:1026E000E10694201307A002638AE602B25726840B
:1026F00081462546182093051400130707FD6372D1
:10270000E6068DC63ED61DA00504ADB7330555417E
:102710003315AC00C98F3ED0A28469BF72479306BF
:102720004700184336CE634707023AD6182093076E
:10273000E002631DF70418309307A002631BF70241
:10274000F2470904138747009C433ACE63C107024E
:102750003ED22DA83307E04093E727003AD63ED07B
:10276000F1B7B387670385462E84BA9761B7FD57E3
:10277000C5B7050402D28146814725461820930536
:102780001400130707FD6376E606F9F20C200D46E8
:10279000172500001305C581EF00B04D11CD972717
:1027A00000009387E7801D8D93070004B397A7006F
:1027B000025505045D8D2AD00C201946171500001E
:1027C0001305457F93041400230CB102EF00704AF7
:1027D00025C597E7FFFF9387E78295E70257F24702
:1027E0001377071009CF91073ECED257D2973EDA22
:1027F00049B5B387670385462E84BA9741B79D07CD
:10280000E19BA107D5B7780897060000938686CF8D
:102810004A860C104E8597000000E7000000FD5727
:102820002A8AE314F5FC8357C9007D5593F7070402
:10283000E39E07DE5255DDBB7808970600009386BD
:1028400066CC4A860C104E850121D1BF1C46FD176F
:102850001CC663D90700184E63C5E700A9476393F8
:10286000F5000DAF1C422E851387170018C28CA3EC
:102870008280011122CC26CA4AC84EC652C406CE56
:102880002A89AE893284B304D6007D5A6314940039
:10289000014501A80C204E864A854D3F0504E317EB
:1028A00045FFF2406244D2444249B249224A05619E
:1028B0008280357122CD26CB4AC94EC706CF52C57C
:1028C00056C35AC1DEDEE2DCE6DAAA89AE8432897A
:1028D000368409C51C4D99E3EFF01FA89717000037
:1028E000938787676398F40C83A44900DE24A18B47
:1028F000E5C79C48F5C393070002A304F1029307C0
:10290000000302D22305F10222C6930B5002971A4C
:102910000000938A6A69054C294B4A841C2099C39C
:10292000639E770DB30C2441638D0C00E6864A86C6
:10293000A6854E853D3FFD576301F51E9256E696EE
:1029400036D21C20638B071CFD571309140002C8E4
:1029500002CE3ECA02CCA309010482D483450900F9
:1029600015465685EF00F03013041900C24749E9B7
:1029700013F7070109C713070002A309E10413F7BE
:10298000870009C71307B002A309E10483460900C1
:102990001307A002638EE606F2474A848146254665
:1029A000182093051400130707FD6376E60AADCAE5
:1029B0003ECEBDA0971700009387075C6395F40097
:1029C00083A4890025B7971700009387E756E39FF4
:1029D000F4F083A4C90019BFA6854E85C92501DD81
:1029E0007D55FA406A44DA444A49BA492A4A9A4A21
:1029F0000A4BF65B665CD65C0D618280050439BFCC
:102A0000330555413315AC00C98F3EC82289B9B78B
:102A1000324793064700184336C6634707023ACE4B
:102A200018209307E002631DF70418309307A002F3
:102A3000631BF702B2470904138747009C433AC659
:102A400063C107023ECA2DA83307E04093E7270081
:102A50003ACE3EC8F1B7B387670385462E84BA974E
:102A600081B7FD57C5B7050402CA8146814725468F
:102A7000182093051400130707FD6376E606F9F2A4
:102A80000C200D461715000013058552EF00701E2F
:102A900011CD971700009387A7511D8D9307000450
:102AA000B397A700424505045D8D2AC80C2019463E
:102AB0001715000013050550130914002304B10273
:102AC000EF00301B35C197D7FFFF9387A75395E7DA
:102AD0004247B2471377071009CF91073EC6925776
:102AE000D2973ED21DBDB387670385462E84BA9721
:102AF00041B79D07E19BA107D5B778009706000075
:102B0000938666D726860C084E8597000000E7005E
:102B10000000FD572A8AE314F5FCDE2493F707042E
:102B2000E39007EC125575BD780097060000938678
:102B300086D426860C084E85012AE1BF797156CAD3
:102B40009C49BA8A984522D426D24ECE52CC06D67B
:102B50004AD05AC85EC6AA892E84B284368A63D304
:102B6000E700BA879CC00347340419C385079CC09B
:102B70001C4093F7070281C79C4089079CC003292A
:102B8000040013796900631A0900130B9401FD5BBB
:102B90005C449840998F634CF9041C40834634048C
:102BA00093F70702B336D000A5EB13063404D285A1
:102BB0004E85829AFD576303F5041C4011469840E8
:102BC000998B544481446397C700B384E64063D330
:102BD000040081441C4418486354F700998FBE9444
:102BE000014969047D5B63982405014509A8854670
:102BF0005A86D2854E85829A631E75017D55B250E4
:102C0000225492540259F249624AD24A424BB24B80
:102C1000456182800509ADBF3307D4001306000368
:102C2000A301C7040347540493871600A29789069B
:102C3000A381E7049DBF85462286D2854E85829A70
:102C4000E30E65FB050945B7797122D426D24AD037
:102C50004ECE06D652CC56CA5AC8B689942D930782
:102C600090063289AA842E8413863504638DF60279
:102C700063E2D706930780056386F61863EDD700F5
:102C8000638E062093073004638EF60A930A2404A9
:102C90002301D404C9A0930730066385F60A93077D
:102CA0004006E395F6FE1C40084393F6070893059B
:102CB0004500C5C61C410CC363D807001307D002EA
:102CC000B307F040A301E404971600009386062F93
:102CD000294765A8930700076382F61663E5D702C4
:102CE0009307E0066389F6189307F006E390F6FA77
:102CF0000C401C4313F805081385470063070806BA
:102D000008C39C4385A893075007E383F6FE930707
:102D100080076389F61293073007E399F6F61C43A0
:102D2000D04181459386470014C383AA0700568586
:102D3000892701C53305554148C05C401CC8A30123
:102D4000040461A81C43930A2404938647009C430F
:102D500014C32301F4048547D5B793F607041C4137
:102D60000CC3B9DAC207C18781BF93F5050408C354
:102D7000C9D99E231307F0066387E60E9716000055
:102D80009386C6232947A30104044C400CC463C5A1
:102D9000050008406D9908C099E3B28A89CDB28ACE
:102DA000B3F5E702FD1AB6958C212380BA00B3D59E
:102DB000E70263F0E70CA147631EF7001C40858B18
:102DC00091CB58401C4863C7E70093070003A38FCB
:102DD000FAFEFD1A3306564110C84E87CA867000A7
:102DE000A2852685EFF09FD57D5A631D450B7D5545
:102DF000B250225492540259F249624AD24A424B8A
:102E000045618280A382D504971600009386061B35
:102E10000C40084313F805081C411105630D080216
:102E200008C313F7150001C793E505020CC041471D
:102E3000B9FB0C4093F5F5FD0CC0B1B79C4193E78D
:102E400007029CC193078007A302F40497160000B1
:102E50009386061875BF13F8050408C3E30308FC3E
:102E6000C207C1837DBF97160000938626152147B0
:102E700019BFAE8735B794411C43CC4913F80608F7
:102E8000138547006306080008C39C438CC339A020
:102E900008C393F606049C43F5DA8EA323280400A6
:102EA000B28A25BF14485686CA8526858299E300D2
:102EB00045F51C40898B8DE7B2474844E35AF5F24B
:102EC0003E853DB785465686CA8526858299E300AC
:102ED00065F3050A5C443247998FE345FAFEE9BF82
:102EE000014A930A94017D5BF5B7411122C42E84F7
:102EF0008395E50006C6D525634905007C48AA9759
:102F00007CC8B2402244410182805E247D777D17D7
:102F1000F98F5EA4FDB7DE25011122CC26CA4AC86E
:102F20004EC606CE93F70710AA842E843289B6893E
:102F300091C78395E500894601461D215E247D7772
:102F40007D17F98F5EA48315E4006244F240CE86BB
:102F50004A86B24942492685D244056111AA4111E7
:102F600022C42E848395E50006C6DD2EFD575A2423
:102F7000631AF500FD77FD17F98F5EA4B240224475
:102F8000410182808567D98F5EA468C8C5BF8395DB
:102F9000E50031A4011122CC26CA4AC806CE4EC68D
:102FA000AA842E89328409C51C4D99E3EFF0CFBA6B
:102FB00097170000938747FA6317F406C0401C4C2C
:102FC0001CC45E24A18BC1C31C48B5CF1C4808405B
:102FD0009379F90F1379F90F1D8D5C486346F5005D
:102FE000A2852685112E25E51C440505FD171CC468
:102FF0001C401387170018C0238037015C48638882
:10300000A7005E24858B81CBA9476316F900A285B2
:103010002685DD240DEDF24062444A85D2444249C2
:10302000B24905618280971700009387E7F4631423
:10303000F400804469B7971700009387E7EFE31027
:10304000F4F8C044ADBFA2852685912841D17D59B1
:10305000D9B789CD9307F00F63F7C7009307A0088E
:103060001CC17D55828090A10545828001458280EA
:10307000411122C42A842E85B285368623AE018E64
:1030800006C6EFE02FEFFD576317F5009387C18F5A
:103090009C4391C31CC0B240224441018280411133
:1030A0009387018426C2844322C44AC006C62A8963
:1030B0002E8491C49C4C81E72685EFF0EFA99717E9
:1030C0000000938767E9631BF402C0400317C40044
:1030D00093170701C18393F68700B5EA93F60701BA
:1030E00095EEA5472320F900136707045AA47D55E0
:1030F000B240224492440249410182809717000065
:10310000938787E76314F4008044C9B797170000DA
:10311000938787E2E31CF4FAC0444DBF918B85C7C7
:103120004C5891C9930744046385F5004A85EFE044
:103130009FDB232A04025E242322040093F7B7FDB9
:103140005EA41C481CC05E2493E787005EA41C4854
:1031500099EB5E241307002093F707286385E700A7
:10316000A2854A85BD2C5E2413F717001DC35C4859
:1031700023240400B307F0401CCC1C480145ADFBE0
:103180008317C40013F7070825D793E707045EA445
:10319000B9BF898B014791E3584818C4F9BF411161
:1031A00022C42A842E8523AE018E06C6C121FD5776
:1031B0006317F5009387C18F9C4391C31CC0B24035
:1031C000224441018280DE25011122CC26CA06CE8E
:1031D0004AC84EC613F78700AA842E8461EFD841EF
:1031E000634DE000B841634AE0000145F2406244AB
:1031F000D2444249B2490561828058547DD703A91F
:1032000004009396370123A0040063DC060670488F
:103210005E24918B99C75C401D8E5C5899C33C40DD
:103220001D8E5C540C50814626858297FD575A248A
:10323000631DF5009440F54763E9D706B7074020C2
:103240008507B3D7D700858BADC31C482322040064
:103250001CC09317370163D80700FD576314F500AE
:103260009C4091E368C84C5823A02401BDDD93071E
:1032700044046385F5002685EFE0FFC6232A040297
:10328000ADB70C500146854626850297FD572A8624
:10329000E310F5F89C40ADDF75476385E7005947BB
:1032A0006393E70423A0240189B7136707045AA492
:1032B0007D552DBF83A90501E38909F203A9050006
:1032C0008D8B23A0350133093941014791E3D8495A
:1032D00018C4E35C20F11C540C50CA864E86268527
:1032E00082976347A0005E2493E707045EA4C9B7F2
:1032F000AA993309A940F1BF9C49ADC3011122CC61
:1033000006CE2A8419C51C4D89E72EC6EFF0CF845E
:10331000B24597170000938727C4639CF5004C4083
:103320008397C5009DC722856244F24005616FF016
:103330009FE997170000938727C46394F5000C4416
:10334000C5B797170000938727BFE39BF5FC4C4454
:10335000C1BFF2406244014505618280014582801F
:10336000411122C42A842E85B285368623AE018E71
:1033700006C6392EFD576317F5009387C18F9C430E
:1033800091C31CC0B2402244410182801971A6DA67
:10339000AE848395E500A2DC86DE328463DB050023
:1033A000DE2423A0060093F707089DE3930700405F
:1033B00015A0300836C6812CB246E34305FE72479D
:1033C000BD67F98F7977BA9793B717009CC2F9BF99
:1033D000930700041CC0F6506654D6540145096199
:1033E0008280DE25011122CC06CE26CA4AC8898BEE
:1033F0002E8489CF930774041CC01CC885475CC801
:10340000F2406244D2444249056182807400300037
:10341000AA84AD3FA2452A892685EFE01FB719E9A6
:103420008317C40013F7072061FFF19B93E7270080
:103430005EA4C9B797F7FFFF938727ED9CD45E245E
:1034400008C008C893E707085EA4A2475CC8B24753
:1034500099CB8315E4002685E12A11C55E24F19BF2
:1034600093E717005EA45E243369F9002316240154
:1034700041BF93F5F50F2A966314C500014582807C
:103480001C21E38EB7FE0505C5BFB3C7A5008D8B14
:103490003307C50081E78D4763EDC700AA87637EC8
:1034A000E508942185078505A38FD7FEE3EBE7FEAA
:1034B000828093763500AA8789CA9421850785057D
:1034C000A38FD7FE93F63700C5BF9376C7FF138649
:1034D00006FE63F0C70683A3050083A2450083AF01
:1034E000850003AFC50083AE050103AE450103A30C
:1034F000850183A8C5019385450223A0770003A811
:10350000C5FF23A2570023A4F70123A6E70123A8A0
:10351000D70123AAC70123AC670023AE1701938705
:10352000470223AE07FF75B790419107910523AE7F
:10353000C7FEE3EBD7FEE3E6E7F6828063F1A5047E
:10354000B386C500637DD5029345F6FF8147FD171D
:103550006393F50082803387F600034807003387C2
:10356000C7002A9723000701DDB73387F50014232E
:103570003307F500850714A3E319F6FE828081471F
:10358000E5BF81E5B2856FE05FA0011122CC06CED8
:1035900026CA4AC84EC6328401EEEFE0DF940149E4
:1035A000F24062444A85D2444249B2490561828070
:1035B000AE84AA8955202689E37485FEA2854E85AE
:1035C000EFE0BF9C2A8969DDA6852286EFF0FFEB3C
:1035D000A6854E85EFE03F91E1B7411122C42A84D0
:1035E0002E85B285368623AE018E06C64528FD5748
:1035F0006317F5009387C18F9C4391C31CC0B240F1
:10360000224441018280411122C42A842E85B28540
:1036100023AE018E06C68D20FD576317F5009387F4
:10362000C18F9C4391C31CC0B2402244410182809F
:10363000411122C42A842E8523AE018E06C699200C
:10364000FD576317F5009387C18F9C4391C31CC03E
:10365000B24022444101828083A7C5FF1385C7FF82
:1036600063D50700AA959C413E958280930780050B
:1036700023AEF18E7D5582809307800523AEF18EB7
:103680007D5582809307800523AEF18E01458280AF
:103690009307800523AEF18E7D55828093078005C8
:1036A00023AEF18E7D5582800000804D20BCBE4B44
:1036B0005B25735D20667265713A257520667265BB
:1036C000715F7265673A25752F307825303858203C
:1036D0004C53423A307825303458204D53423A30DA
:1036E00078253034582573005B25735D205761764B
:1036F000653A2575207365742077617665666F720B
:103700006D3A25752F307825582573005B25735D3C
:10371000206366675F7265673A25752F3078255894
:1037200025730000703700007C37000084370000EC
:103730004144393833335F57726974654366675261
:10374000656700004144393833335F53657457610E
:103750007665666F726D00004144393833335F53CC
:1037600065744672657175656E6379003F3F3F0011
:10377000747269616E676C65000000007371756139
:103780007265000073696E65000000005E0C000049
:10379000B00D0000060E00008A0C0000A60C000010
:1037A000D20C0000480D0000EC0B0000D80B00000C
:1037B000727374006765740065706F63683D000024
:1037C000667265713D000000666F726D3D0000001D
:1037D000737465703D0000006462673D0000000086
:1037E0006F6E00006F666600010000000A000000B6
:1037F00064000000E803000010270000A08601001C
:1038000040420F0055544320253032753A2530325E
:10381000753A253032750000536574206672657103
:1038200075656E637920746F20257520487A206154
:103830006E6420666F726D2027257327207479705F
:10384000652573004B487A3A25752E2575000000D2
:1038500025733A25730000004572726F7220636F02
:103860006D6D616E642021257300000052657374D4
:103870006172742E2E2E25732573000054696D65B8
:103880003A2575207365632C20667265713A25753B
:1038900020487A2C20666F726D3A2725732725738E
:1038A00000000000536574206672657175656E6373
:1038B0007920746F20257520487A25730000000058
:1038C000487A3A2575000000536574207761766563
:1038D000666F726D3A272573272C20737465703AD2
:1038E000257520487A2573004368697049443A3049
:1038F0007825582C2053797374656D436C6B3A2589
:1039000075487A2C205365636F6E64613A2575257E
:103910007300000031487A003130487A000000001E
:10392000313030487A000000314B487A0000000006
:1039300031304B487A0000003130304B487A00007B
:10394000314D487A000000004672657100000000A9
:10395000466F726D00000000537465700000000037
:10396000524953432D5620434833325830333500A3
:103970000A0000000000000000000000000000003D
:103980000000000000000000000000000000000037
:103990000000000000000000000000000000000027
:1039A0000000000000000000000000000000000017
:1039B0000000000000000000000000000000000007
:1039C00000000000000000000000000000000000F7
:1039D00000000000000000000000000000000000E7
:1039E00000000000000000000000000000000000D7
:1039F00000000000000000000000000000000000C7
:103A000000000000000000000000000000000000B6
:103A100000000000000000000000000000000000A6
:103A20000000000000000000000000000000000096
:103A30000000000000000000000000000000000086
:103A40000000000000000000000000000000000076
:103A50000000000000000000000000000000000066
:103A6000000000000000000000000000000E111126
:103A70000E00000000000000000000000000065FD3
:103A80005F0600000003030003030000147F7F149F
:103A90007F7F1400242E6B6B3A12000046663018AC
:103AA0000C666200307A4F5D377A480004070300E5
:103AB00000000000001C3E63410000000041633E26
:103AC0001C000000082A3E1C1C3E2A0808083E3E36
:103AD000080800000080E0600000000008080808F6
:103AE0000808000000006060000000006030180C52
:103AF000060301003E7F71594D7F3E0040427F7FAB
:103B000040400000627359496F66000022634949D2
:103B10007F360000181C16537F7F500027674545ED
:103B20007D3900003C7E4B497930000003037179F8
:103B30000F070000367F49497F360000064F49696C
:103B40003F1E000000006666000000000080E66680
:103B500000000000081C36634100000024242424D7
:103B600024240000004163361C0800000203515960
:103B70000F0600003E7F415D5D1F1E007C7E13131B
:103B80007E7C0000417F7F49497F36001C3E6341B7
:103B900041632200417F7F41633E1C00417F7F499A
:103BA0005D416300417F7F491D0103001C3E63416D
:103BB000517372007F7F08087F7F000000417F7F84
:103BC00041000000307040417F3F0100417F7F088D
:103BD0001C776300417F7F41406070007F7F0E1C37
:103BE0000E7F7F007F7F060C187F7F001C3E6341A5
:103BF000633E1C00417F7F49090F06001E3F217173
:103C00007F5E0000417F7F09197F6600266F4D5956
:103C10007332000003417F7F410300007F7F4040FB
:103C20007F7F00001F3F60603F1F00007F7F3018D4
:103C3000307F7F0043673C183C674300074F78782C
:103C40004F070000476371594D677300007F7F4144
:103C5000410000000103060C183060000041417F64
:103C60007F000000080C0603060C0800808080809E
:103C700080808080000003070400000020745454FA
:103C80003C784000417F3F4848783000387C4444CD
:103C90006C280000307848493F7F4000387C5454FD
:103CA0005C180000487E7F490302000098BCA4A471
:103CB000F87C0400417F7F08047C780000447D7D0F
:103CC0004000000060E08080FD7D0000417F7F10AB
:103CD000386C440000417F7F400000007C7C183835
:103CE0001C7C78007C7C04047C780000387C444494
:103CF0007C38000084FCF8A4243C1800183C24A460
:103D0000F8FC8400447C784C041C1800485C545433
:103D10007424000000043E7F442400003C7C4040AA
:103D20003C7C40001C3C60603C1C00003C7C7038CB
:103D3000707C3C00446C3810386C44009CBCA0A0E3
:103D4000FC7C00004C64745C4C64000008083E7706
:103D50004141000000000077770000004141773EBC
:103D6000080800000203010302030100FFFFFFFF38
:103D7000FFFFFF0016DCFFFF40DBFFFF10DCFFFF53
:103D800048DBFFFF10DCFFFF0EDBFFFF10DCFFFF57
:103D900048DBFFFF40DBFFFF40DBFFFF0EDBFFFFE9
:103DA00048DBFFFF4EDBFFFF4EDBFFFF4EDBFFFF7D
:103DB0000EDBFFFF00DBFFFF00DBFFFFD0DBFFFFC1
:103DC000ACDCFFFFD0DBFFFFCEDAFFFFD0DBFFFF75
:103DD000ACDCFFFF00DBFFFF00DBFFFFCEDAFFFF05
:103DE000ACDCFFFF0EDBFFFF0EDBFFFF0EDBFFFF98
:103DF000CEDAFFFF0EDEFFFF60DDFFFF60DDFFFFBD
:103E00005EDDFFFF64DDFFFF64DDFFFF34DDFFFFEC
:103E10005EDDFFFF64DDFFFF34DDFFFF64DDFFFFDC
:103E20005EDDFFFFFCDDFFFFFCDDFFFFFCDDFFFFD4
:103E300034DDFFFF00010202030303030404040452
:103E40000404040405050505050505050505050526
:103E50000505050506060606060606060606060606
:103E600006060606060606060606060606060606F2
:103E700006060606070707070707070707070707D6
:103E800007070707070707070707070707070707C2
:103E900007070707070707070707070707070707B2
:103EA00007070707070707070707070707070707A2
:103EB0000707070708080808080808080808080886
:103EC0000808080808080808080808080808080872
:103ED0000808080808080808080808080808080862
:103EE0000808080808080808080808080808080852
:103EF0000808080808080808080808080808080842
:103F00000808080808080808080808080808080831
:103F10000808080808080808080808080808080821
:103F20000808080808080808080808080808080811
:103F30000808080800000000000000000000000061
:103F40000000000000000000000000000000000071
:103F50000000000000000000000000000000000061
:103F60000000000000000000000000000000000051
:103F70000000000000000000000000000000000041
:103F80000000000000000000000000000000000031
:103F90000000000043000000504F5349580000004B
:103FA0002E000000232D302B20000000686C4C00F8
:103FB0006566674546470000303132333435363761
:103FC0003839414243444546000000003031323325
:103FD0003435363738396162636465660000000045
:103FE00000202020202020202020282828282820C9
:103FF00020202020202020202020202020202020C1
:104000002088101010101010101010101010101028
:104010001004040404040404040404101010101018
:1040200010104141414141410101010101010101E2
:104030000101010101010101010101011010101034
:1040400010104242424242420202020202020202B4
:104050000202020202020202020202021010101008
:104060002000000000000000000000000000000030
:104070000000000000000000000000000000000040
:104080000000000000000000000000000000000030
:104090000000000000000000000000000000000020
:1040A0000000000000000000000000000000000010
:1040B0000000000000000000000000000000000000
:1040C00000000000000000000000000000000000F0
:1040D00000000000000000000000000000000000E0
:0440E00000000000DC
:1040E4001439000018390000203900002839000074
:1040F40030390000383900004039000048390000E8
:10410400503900005839000001020304050607086D
:104114000102030405060708010203040506070853
:10412400010203040506070800000000543F0000D4
:10413400743F0000343F0000000000000000000055
:10414400000000000000000000000000000000006B
:10415400000000000000000000000000000000005B
:10416400000000000000000000000000000000004B
:10417400000000000000000000000000000000003B
:1041840000000000000000004300000000000000E8
:10419400000000000000000000000000000000001B
:1041A40000000000000000004300000000000000C8
:1041B40000000000000000000000000000000000FB
:1041C40000000000000000004300000000000000A8
:1041D40000000000000000000000000000000000DB
:1041E4000000000000000000430000000000000088
:1041F40000000000000000000000000000000000BB
:104204000000000000000000430000000000000067
:10421400000000000000000000000000000000009A
:104224000000000000000000430000000000000047
:10423400000000000000000000000000000000007A
:104244000000000000000000430000000000000027
:10425400000000000000000000000000000000005A
:10426400000000000000000052300000CA240000DA
:1042740000000000E03F0000A03F0000DC37000029
:10428400DC370000DC370000DC370000DC370000DE
:10429400DC370000DC370000DC370000DC370000CE
:1042A400FFFFFFFFFFFFFFFFFFFFFFFFFFFF000018
:1042B4000100415343494900000000000000000090
:1042C40000000000000000000000000000000000EA
:1042D4000000415343494900000000000000000071
:1042E40000000000000000000000000000000000CA
:1042F400000000000000000028000010000C014035
:1043040013000000703900000762D96700800000C4
:10431400FFFFFFFF7FBB01000100000060390000C8
:1043240001000000006CDC0244444444444444441E
:10433400444444441803002048000020480000205E
:00000001FF
